{
  "contractName": "ClaimsTokenERC20Extension",
  "abi": [
    {
      "constant": true,
      "inputs": [],
      "name": "name",
      "outputs": [
        {
          "name": "",
          "type": "string"
        }
      ],
      "payable": false,
      "stateMutability": "view",
      "type": "function"
    },
    {
      "constant": false,
      "inputs": [
        {
          "name": "spender",
          "type": "address"
        },
        {
          "name": "value",
          "type": "uint256"
        }
      ],
      "name": "approve",
      "outputs": [
        {
          "name": "",
          "type": "bool"
        }
      ],
      "payable": false,
      "stateMutability": "nonpayable",
      "type": "function"
    },
    {
      "constant": true,
      "inputs": [],
      "name": "totalSupply",
      "outputs": [
        {
          "name": "",
          "type": "uint256"
        }
      ],
      "payable": false,
      "stateMutability": "view",
      "type": "function"
    },
    {
      "constant": true,
      "inputs": [],
      "name": "totalReceivedFunds",
      "outputs": [
        {
          "name": "",
          "type": "uint256"
        }
      ],
      "payable": false,
      "stateMutability": "view",
      "type": "function"
    },
    {
      "constant": false,
      "inputs": [
        {
          "name": "_from",
          "type": "address"
        },
        {
          "name": "_to",
          "type": "address"
        },
        {
          "name": "_value",
          "type": "uint256"
        }
      ],
      "name": "transferFrom",
      "outputs": [
        {
          "name": "",
          "type": "bool"
        }
      ],
      "payable": false,
      "stateMutability": "nonpayable",
      "type": "function"
    },
    {
      "constant": true,
      "inputs": [],
      "name": "decimals",
      "outputs": [
        {
          "name": "",
          "type": "uint8"
        }
      ],
      "payable": false,
      "stateMutability": "view",
      "type": "function"
    },
    {
      "constant": false,
      "inputs": [
        {
          "name": "spender",
          "type": "address"
        },
        {
          "name": "addedValue",
          "type": "uint256"
        }
      ],
      "name": "increaseAllowance",
      "outputs": [
        {
          "name": "",
          "type": "bool"
        }
      ],
      "payable": false,
      "stateMutability": "nonpayable",
      "type": "function"
    },
    {
      "constant": true,
      "inputs": [
        {
          "name": "",
          "type": "address"
        }
      ],
      "name": "processedFunds",
      "outputs": [
        {
          "name": "",
          "type": "uint256"
        }
      ],
      "payable": false,
      "stateMutability": "view",
      "type": "function"
    },
    {
      "constant": true,
      "inputs": [
        {
          "name": "",
          "type": "address"
        }
      ],
      "name": "claimedFunds",
      "outputs": [
        {
          "name": "",
          "type": "uint256"
        }
      ],
      "payable": false,
      "stateMutability": "view",
      "type": "function"
    },
    {
      "constant": true,
      "inputs": [
        {
          "name": "_forAddress",
          "type": "address"
        }
      ],
      "name": "availableFunds",
      "outputs": [
        {
          "name": "",
          "type": "uint256"
        }
      ],
      "payable": false,
      "stateMutability": "view",
      "type": "function"
    },
    {
      "constant": true,
      "inputs": [],
      "name": "fundsToken",
      "outputs": [
        {
          "name": "",
          "type": "address"
        }
      ],
      "payable": false,
      "stateMutability": "view",
      "type": "function"
    },
    {
      "constant": true,
      "inputs": [
        {
          "name": "owner",
          "type": "address"
        }
      ],
      "name": "balanceOf",
      "outputs": [
        {
          "name": "",
          "type": "uint256"
        }
      ],
      "payable": false,
      "stateMutability": "view",
      "type": "function"
    },
    {
      "constant": true,
      "inputs": [],
      "name": "symbol",
      "outputs": [
        {
          "name": "",
          "type": "string"
        }
      ],
      "payable": false,
      "stateMutability": "view",
      "type": "function"
    },
    {
      "constant": false,
      "inputs": [
        {
          "name": "spender",
          "type": "address"
        },
        {
          "name": "subtractedValue",
          "type": "uint256"
        }
      ],
      "name": "decreaseAllowance",
      "outputs": [
        {
          "name": "",
          "type": "bool"
        }
      ],
      "payable": false,
      "stateMutability": "nonpayable",
      "type": "function"
    },
    {
      "constant": false,
      "inputs": [
        {
          "name": "_to",
          "type": "address"
        },
        {
          "name": "_value",
          "type": "uint256"
        }
      ],
      "name": "transfer",
      "outputs": [
        {
          "name": "",
          "type": "bool"
        }
      ],
      "payable": false,
      "stateMutability": "nonpayable",
      "type": "function"
    },
    {
      "constant": true,
      "inputs": [],
      "name": "receivedFunds",
      "outputs": [
        {
          "name": "",
          "type": "uint256"
        }
      ],
      "payable": false,
      "stateMutability": "view",
      "type": "function"
    },
    {
      "constant": true,
      "inputs": [
        {
          "name": "owner",
          "type": "address"
        },
        {
          "name": "spender",
          "type": "address"
        }
      ],
      "name": "allowance",
      "outputs": [
        {
          "name": "",
          "type": "uint256"
        }
      ],
      "payable": false,
      "stateMutability": "view",
      "type": "function"
    },
    {
      "inputs": [
        {
          "name": "_owner",
          "type": "address"
        },
        {
          "name": "_fundsToken",
          "type": "address"
        }
      ],
      "payable": false,
      "stateMutability": "nonpayable",
      "type": "constructor"
    },
    {
      "anonymous": false,
      "inputs": [
        {
          "indexed": true,
          "name": "from",
          "type": "address"
        },
        {
          "indexed": true,
          "name": "to",
          "type": "address"
        },
        {
          "indexed": false,
          "name": "value",
          "type": "uint256"
        }
      ],
      "name": "Transfer",
      "type": "event"
    },
    {
      "anonymous": false,
      "inputs": [
        {
          "indexed": true,
          "name": "owner",
          "type": "address"
        },
        {
          "indexed": true,
          "name": "spender",
          "type": "address"
        },
        {
          "indexed": false,
          "name": "value",
          "type": "uint256"
        }
      ],
      "name": "Approval",
      "type": "event"
    },
    {
      "anonymous": false,
      "inputs": [
        {
          "indexed": true,
          "name": "from",
          "type": "address"
        },
        {
          "indexed": false,
          "name": "fundsReceived",
          "type": "uint256"
        }
      ],
      "name": "FundsReceived",
      "type": "event"
    },
    {
      "anonymous": false,
      "inputs": [
        {
          "indexed": true,
          "name": "by",
          "type": "address"
        },
        {
          "indexed": false,
          "name": "fundsWithdrawn",
          "type": "uint256"
        }
      ],
      "name": "FundsWithdrawn",
      "type": "event"
    },
    {
      "constant": false,
      "inputs": [],
      "name": "withdrawFunds",
      "outputs": [],
      "payable": true,
      "stateMutability": "payable",
      "type": "function"
    },
    {
      "constant": false,
      "inputs": [
        {
          "name": "_sender",
          "type": "address"
        },
        {
          "name": "_value",
          "type": "uint256"
        },
        {
          "name": "",
          "type": "bytes"
        }
      ],
      "name": "tokenFallback",
      "outputs": [],
      "payable": false,
      "stateMutability": "nonpayable",
      "type": "function"
    }
  ],
  "bytecode": "0x60806040523480156200001157600080fd5b5060405160408062001255833981018060405260408110156200003357600080fd5b508051602091820151604080518082018252600b81527f436c61696d73546f6b656e000000000000000000000000000000000000000000818601908152825180840190935260038084527f4353540000000000000000000000000000000000000000000000000000000000968401969096528151949593948694929392601292620000be9262000221565b508151620000d490600490602085019062000221565b506005805460ff191660ff92909216919091179055506200010990508169021e19e0c9bab24000006200014c602090811b901c565b506000600655600160a060020a03811615156200012557600080fd5b60098054600160a060020a031916600160a060020a039290921691909117905550620002c6565b600160a060020a03821615156200016257600080fd5b6200017e816002546200020760201b62000d491790919060201c565b600255600160a060020a03821660009081526020818152604090912054620001b191839062000d4962000207821b17901c565b600160a060020a0383166000818152602081815260408083209490945583518581529351929391927fddf252ad1be2c89b69c2b068fc378daa952ba7f163c4a11628f55a4df523b3ef9281900390910190a35050565b6000828201838110156200021a57600080fd5b9392505050565b828054600181600116156101000203166002900490600052602060002090601f016020900481019282601f106200026457805160ff191683800117855562000294565b8280016001018555821562000294579182015b828111156200029457825182559160200191906001019062000277565b50620002a2929150620002a6565b5090565b620002c391905b80821115620002a25760008155600101620002ad565b90565b610f7f80620002d66000396000f3fe6080604052600436106101445760003560e01c8063468ce230116100c0578063a457c2d711610074578063ab96cc4c11610059578063ab96cc4c14610513578063c0ee0b8a14610528578063dd62ed3e146105fd57610144565b8063a457c2d714610487578063a9059cbb146104cd57610144565b806363f04b15116100a557806363f04b15146103f457806370a082311461043257806395d89b411461047257610144565b8063468ce230146103745780635d16eb5c146103b457610144565b806323b872dd11610117578063313ce567116100fc578063313ce567146102c357806339509351146102ee5780633a4486de1461033457610144565b806323b872dd1461026957806324600fc3146102b957610144565b806306fdde0314610149578063095ea7b3146101d357806318160ddd1461022d578063197aecb114610254575b600080fd5b34801561015557600080fd5b5061015e610645565b6040805160208082528351818301528351919283929083019185019080838360005b83811015610198578181015183820152602001610180565b50505050905090810190601f1680156101c55780820380516001836020036101000a031916815260200191505b509250505060405180910390f35b3480156101df57600080fd5b50610219600480360360408110156101f657600080fd5b5073ffffffffffffffffffffffffffffffffffffffff81351690602001356106db565b604080519115158252519081900360200190f35b34801561023957600080fd5b506102426106f2565b60408051918252519081900360200190f35b34801561026057600080fd5b506102426106f8565b34801561027557600080fd5b506102196004803603606081101561028c57600080fd5b5073ffffffffffffffffffffffffffffffffffffffff8135811691602081013590911690604001356106fe565b6102c1610725565b005b3480156102cf57600080fd5b506102d861088f565b6040805160ff9092168252519081900360200190f35b3480156102fa57600080fd5b506102196004803603604081101561031157600080fd5b5073ffffffffffffffffffffffffffffffffffffffff8135169060200135610898565b34801561034057600080fd5b506102426004803603602081101561035757600080fd5b503573ffffffffffffffffffffffffffffffffffffffff166108e6565b34801561038057600080fd5b506102426004803603602081101561039757600080fd5b503573ffffffffffffffffffffffffffffffffffffffff166108f8565b3480156103c057600080fd5b50610242600480360360208110156103d757600080fd5b503573ffffffffffffffffffffffffffffffffffffffff1661090a565b34801561040057600080fd5b50610409610949565b6040805173ffffffffffffffffffffffffffffffffffffffff9092168252519081900360200190f35b34801561043e57600080fd5b506102426004803603602081101561045557600080fd5b503573ffffffffffffffffffffffffffffffffffffffff16610965565b34801561047e57600080fd5b5061015e61098d565b34801561049357600080fd5b50610219600480360360408110156104aa57600080fd5b5073ffffffffffffffffffffffffffffffffffffffff81351690602001356109ee565b3480156104d957600080fd5b50610219600480360360408110156104f057600080fd5b5073ffffffffffffffffffffffffffffffffffffffff8135169060200135610a37565b34801561051f57600080fd5b50610242610a5c565b34801561053457600080fd5b506102c16004803603606081101561054b57600080fd5b73ffffffffffffffffffffffffffffffffffffffff8235169160208101359181019060608101604082013564010000000081111561058857600080fd5b82018360208201111561059a57600080fd5b803590602001918460018302840111640100000000831117156105bc57600080fd5b91908080601f016020809104026020016040519081016040528093929190818152602001838380828437600092019190915250929550610a62945050505050565b34801561060957600080fd5b506102426004803603604081101561062057600080fd5b5073ffffffffffffffffffffffffffffffffffffffff81358116916020013516610b4c565b60038054604080516020601f60026000196101006001881615020190951694909404938401819004810282018101909252828152606093909290918301828280156106d15780601f106106a6576101008083540402835291602001916106d1565b820191906000526020600020905b8154815290600101906020018083116106b457829003601f168201915b5050505050905090565b60006106e8338484610b84565b5060015b92915050565b60025490565b60065490565b600061070984610c37565b61071283610c37565b61071d848484610cb7565b949350505050565b341561076c57604080517f08c379a0000000000000000000000000000000000000000000000000000000008152602060048201526000602482015290519081900360640190fd5b6000610776610d16565b600954604080517fa9059cbb00000000000000000000000000000000000000000000000000000000815233600482015260248101849052905192935073ffffffffffffffffffffffffffffffffffffffff9091169163a9059cbb916044808201926020929091908290030181600087803b1580156107f357600080fd5b505af1158015610807573d6000803e3d6000fd5b505050506040513d602081101561081d57600080fd5b5051151561088c57604080517f08c379a000000000000000000000000000000000000000000000000000000000815260206004820152600f60248201527f5452414e534645525f4641494c45440000000000000000000000000000000000604482015290519081900360640190fd5b50565b60055460ff1690565b33600081815260016020908152604080832073ffffffffffffffffffffffffffffffffffffffff8716845290915281205490916106e89185906108e1908663ffffffff610d4916565b610b84565b60076020526000908152604090205481565b60086020526000908152604090205481565b73ffffffffffffffffffffffffffffffffffffffff81166000908152600860205260408120546106ec9061093d84610d5b565b9063ffffffff610d4916565b60095473ffffffffffffffffffffffffffffffffffffffff1681565b73ffffffffffffffffffffffffffffffffffffffff1660009081526020819052604090205490565b60048054604080516020601f60026000196101006001881615020190951694909404938401819004810282018101909252828152606093909290918301828280156106d15780601f106106a6576101008083540402835291602001916106d1565b33600081815260016020908152604080832073ffffffffffffffffffffffffffffffffffffffff8716845290915281205490916106e89185906108e1908663ffffffff610dc816565b6000610a4233610c37565b610a4b83610c37565b610a558383610ddd565b9392505050565b60065481565b60095473ffffffffffffffffffffffffffffffffffffffff163314610ae857604080517f08c379a000000000000000000000000000000000000000000000000000000000815260206004820152601360248201527f554e415554484f52495a45445f53454e44455200000000000000000000000000604482015290519081900360640190fd5b6000821115610b4757610afa82610dea565b60408051838152905173ffffffffffffffffffffffffffffffffffffffff8516917f8e47b87b0ef542cdfa1659c551d88bad38aa7f452d2bbb349ab7530dfec8be8f919081900360200190a25b505050565b73ffffffffffffffffffffffffffffffffffffffff918216600090815260016020908152604080832093909416825291909152205490565b73ffffffffffffffffffffffffffffffffffffffff82161515610ba657600080fd5b73ffffffffffffffffffffffffffffffffffffffff83161515610bc857600080fd5b73ffffffffffffffffffffffffffffffffffffffff808416600081815260016020908152604080832094871680845294825291829020859055815185815291517f8c5be1e5ebec7d5bd14f71427d1e84f3dd0314c0f7b2291e5b200ac8c7c3b9259281900390910190a3505050565b6000610c4282610d5b565b60065473ffffffffffffffffffffffffffffffffffffffff8416600090815260076020908152604080832093909355600890522054909150610c8a908263ffffffff610d4916565b73ffffffffffffffffffffffffffffffffffffffff90921660009081526008602052604090209190915550565b6000610cc4848484610e03565b73ffffffffffffffffffffffffffffffffffffffff8416600090815260016020908152604080832033808552925290912054610d0c9186916108e1908663ffffffff610dc816565b5060019392505050565b600080610d223361090a565b60065433600090815260076020908152604080832093909355600890529081205591505090565b600082820183811015610a5557600080fd5b73ffffffffffffffffffffffffffffffffffffffff81166000908152600760205260408120546006548291610d96919063ffffffff610dc816565b9050610a55610da36106f2565b610dbc83610db087610965565b9063ffffffff610f0416565b9063ffffffff610f2f16565b600082821115610dd757600080fd5b50900390565b60006106e8338484610e03565b600654610dfd908263ffffffff610d4916565b60065550565b73ffffffffffffffffffffffffffffffffffffffff82161515610e2557600080fd5b73ffffffffffffffffffffffffffffffffffffffff8316600090815260208190526040902054610e5b908263ffffffff610dc816565b73ffffffffffffffffffffffffffffffffffffffff8085166000908152602081905260408082209390935590841681522054610e9d908263ffffffff610d4916565b73ffffffffffffffffffffffffffffffffffffffff8084166000818152602081815260409182902094909455805185815290519193928716927fddf252ad1be2c89b69c2b068fc378daa952ba7f163c4a11628f55a4df523b3ef92918290030190a3505050565b6000821515610f15575060006106ec565b828202828482811515610f2457fe5b0414610a5557600080fd5b6000808211610f3d57600080fd5b60008284811515610f4a57fe5b0494935050505056fea165627a7a723058207c73554dd5937617c532503dd0bc8c0831901e97c6a498c3ea4bcb474de4250a0029",
  "source": "pragma solidity ^0.5.2;\n\nimport \"../oz/SafeMath.sol\";\nimport \"../oz/IERC20.sol\";\nimport \"../oz/ERC20.sol\";\n\n/**\n * @dev Optional functions from the ERC20 standard.\n */\ncontract ERC20Detailed is IERC20 {\n    string private _name;\n    string private _symbol;\n    uint8 private _decimals;\n\n    /**\n     * @dev Sets the values for `name`, `symbol`, and `decimals`. All three of\n     * these values are immutable: they can only be set once during\n     * construction.\n     */\n    constructor (string memory name, string memory symbol, uint8 decimals) public {\n        _name = name;\n        _symbol = symbol;\n        _decimals = decimals;\n    }\n\n    /**\n     * @dev Returns the name of the token.\n     */\n    function name() public view returns (string memory) {\n        return _name;\n    }\n\n    /**\n     * @dev Returns the symbol of the token, usually a shorter version of the\n     * name.\n     */\n    function symbol() public view returns (string memory) {\n        return _symbol;\n    }\n\n    /**\n     * @dev Returns the number of decimals used to get its user representation.\n     * For example, if `decimals` equals `2`, a balance of `505` tokens should\n     * be displayed to a user as `5,05` (`505 / 10 ** 2`).\n     *\n     * Tokens usually opt for a value of 18, imitating the relationship between\n     * Ether and Wei.\n     *\n     * NOTE: This information is only used for _display_ purposes: it in\n     * no way affects any of the arithmetic of the contract, including\n     * {IERC20-balanceOf} and {IERC20-transfer}.\n     */\n    function decimals() public view returns (uint8) {\n        return _decimals;\n    }\n}\n\ninterface IClaimsToken {\n\n\t/**\n\t * @dev This event emits when funds to be deposited are sent to the token contract\n\t * @param from contains the address of the sender of the received funds\n\t * @param fundsReceived contains the amount of funds received for distribution\n\t */\n\tevent FundsReceived(address indexed from, uint256 fundsReceived);\n\n\t/**\n\t * @dev This event emits when distributed funds are withdrawn by a token holder.\n\t * @param by contains the address of the receiver of funds\n\t * @param fundsWithdrawn contains the amount of funds that were withdrawn\n\t */\n\tevent FundsWithdrawn(address indexed by, uint256 fundsWithdrawn);\n\n\t/**\n\t * @dev Withdraws available funds for user.\n\t */\n\tfunction withdrawFunds() external payable;\n\n\t/**\n\t * @dev Returns the amount of funds a given address is able to withdraw currently.\n\t * @param _forAddress Address of ClaimsToken holder\n\t * @return A uint256 representing the available funds for a given account\n\t */\n\tfunction availableFunds(address _forAddress) external view returns (uint256);\n\n\t/**\n\t * @dev Get cumulative funds received by ClaimsToken.\n\t * @return A uint256 representing the total funds received by ClaimsToken\n\t */\n\tfunction totalReceivedFunds() external view returns (uint256);\n}\n\ncontract ClaimsToken is IClaimsToken, ERC20, ERC20Detailed {\n\n\tusing SafeMath for uint256;\n\n\t// cumulative funds received by this contract\n\tuint256 public receivedFunds;\n\t// cumulative funds received which were already processed for distribution - by user\n\tmapping (address => uint256) public processedFunds;\n\t// claimed but not yet withdrawn funds for a user\n\tmapping (address => uint256) public claimedFunds;\n\n\n\tconstructor(address _owner)\n\t\tpublic\n\t\tERC20Detailed(\"ClaimsToken\", \"CST\", 18)\n\t{\n\t\t_mint(_owner, 10000 * (10 ** uint256(18)));\n\n\t\treceivedFunds = 0;\n\t}\n\n\t/**\n\t * @dev Transfer token to a specified address.\n\t * Claims funds for both parties, whereby the amount of tokens withdrawn\n\t * is inherited by the new token owner.\n\t * @param _to The address to transfer to\n\t * @param _value The amount to be transferred\n\t */\n\tfunction transfer(address _to, uint256 _value)\n\t\tpublic\n\t\treturns (bool)\n\t{\n\t\t_claimFunds(msg.sender);\n\t\t_claimFunds(_to);\n\n\t\treturn super.transfer(_to, _value);\n\t}\n\n\n\t/**\n\t * @dev Transfer tokens from one address to another.\n\t * Claims funds for both parties, whereby the amount of tokens withdrawn\n\t * is inherited by the new token owner.\n\t * @param _from address The address which you want to send tokens from\n\t * @param _to address The address which you want to transfer to\n\t * @param _value uint256 the amount of tokens to be transferred\n\t */\n\tfunction transferFrom(address _from, address _to, uint256 _value)\n\t\tpublic\n\t\treturns (bool)\n\t{\n\t\t_claimFunds(_from);\n\t\t_claimFunds(_to);\n\n\t\treturn super.transferFrom(_from, _to, _value);\n\t}\n\n\t/**\n\t * @dev Get cumulative funds received by ClaimsToken.\n\t * @return A uint256 representing the total funds received by ClaimsToken\n\t */\n\tfunction totalReceivedFunds()\n\t\texternal\n\t\tview\n\t\treturns (uint256)\n\t{\n\t\treturn receivedFunds;\n\t}\n\n\t/**\n\t * @dev Returns the amount of funds a given address is able to withdraw currently.\n\t * @param _forAddress Address of ClaimsToken holder\n\t * @return A uint256 representing the available funds for a given account\n\t */\n\tfunction availableFunds(address _forAddress)\n\t\tpublic\n\t\tview\n\t\treturns (uint256)\n\t{\n\t\treturn _calcUnprocessedFunds(_forAddress).add(claimedFunds[_forAddress]);\n\t}\n\n\t/**\n\t * @dev Increments cumulative received funds by new received funds.\n\t * Called when ClaimsToken receives funds.\n\t * @param _value Amount of tokens / Ether received\n\t */\n\tfunction _registerFunds(uint256 _value)\n\t\tinternal\n\t{\n\t\treceivedFunds = receivedFunds.add(_value);\n\t}\n\n\t/**\n\t * @dev Returns payout for a user which can be withdrawn or claimed.\n\t * @param _forAddress Address of ClaimsToken holder\n\t */\n\tfunction _calcUnprocessedFunds(address _forAddress)\n\t\tinternal\n\t\tview\n\t\treturns (uint256)\n\t{\n\t\tuint256 newReceivedFunds = receivedFunds.sub(processedFunds[_forAddress]);\n\t\treturn balanceOf(_forAddress).mul(newReceivedFunds).div(totalSupply());\n\t}\n\n\t/**\n\t * @dev Claims funds for a user.\n\t * @param _forAddress Address of ClaimsToken holder\n\t */\n\tfunction _claimFunds(address _forAddress) internal {\n\t\tuint256 unprocessedFunds = _calcUnprocessedFunds(_forAddress);\n\n\t\tprocessedFunds[_forAddress] = receivedFunds;\n\t\tclaimedFunds[_forAddress] = claimedFunds[_forAddress].add(unprocessedFunds);\n\t}\n\n\t/**\n\t * @dev Sets claimed but not yet withdrawn funds to 0,\n\t * marks total received funds as processed and\n\t * returns the withdrawable amount for a user.\n\t * @return A uint256 representing the withdrawable funds\n\t */\n\tfunction _prepareWithdraw()\n\t\tinternal\n\t\treturns (uint256)\n\t{\n\t\tuint256 withdrawableFunds = availableFunds(msg.sender);\n\n\t\tprocessedFunds[msg.sender] = receivedFunds;\n\t\tclaimedFunds[msg.sender] = 0;\n\n\t\treturn withdrawableFunds;\n\t}\n}\n\ncontract ClaimsTokenERC20Extension is IClaimsToken, ClaimsToken {\n\n\t// token that ClaimsToken takes in custodianship\n\tIERC20 public fundsToken;\n\n\tmodifier onlyFundsToken () {\n\t\trequire(msg.sender == address(fundsToken), \"UNAUTHORIZED_SENDER\");\n\t\t_;\n\t}\n\n\tconstructor(address _owner, IERC20 _fundsToken)\n\t\tpublic\n\t\tClaimsToken(_owner)\n\t{\n\t\trequire(address(_fundsToken) != address(0));\n\n\t\tfundsToken = _fundsToken;\n\t}\n\n\t/**\n\t * @dev Withdraws available funds for user.\n\t */\n\tfunction withdrawFunds()\n\t\texternal\n\t\tpayable\n\t{\n\t\trequire(msg.value == 0, \"\");\n\n\t\tuint256 withdrawableFunds = _prepareWithdraw();\n\n\t\trequire(fundsToken.transfer(msg.sender, withdrawableFunds), \"TRANSFER_FAILED\");\n\t}\n\n\t/**\n\t * @dev For ERC223.\n\t * Calls _registerFunds(), whereby total received funds (cumulative) gets updated.\n\t * @param _sender Sender of tokens\n\t * @param _value Amount of tokens\n\t */\n\tfunction tokenFallback(address _sender, uint256 _value, bytes memory)\n\t\tpublic\n\t\tonlyFundsToken()\n\t{\n\t\tif (_value > 0) {\n\t\t\t_registerFunds(_value);\n\t\t\temit FundsReceived(_sender, _value);\n\t\t}\n\t}\n}\n",
  "sourcePath": "/Users/woz/glowup/molochV2/git/moloch-subgraph/contracts/tokens/ClaimsToken.sol",
  "compiler": {
    "name": "solc",
    "version": "0.5.3+commit.10d17f24.Emscripten.clang"
  },
  "schemaVersion": "3.0.23",
  "updatedAt": "2020-02-11T21:18:30.461Z",
  "devdoc": {
    "methods": {
      "allowance(address,address)": {
        "details": "Function to check the amount of tokens that an owner allowed to a spender.",
        "params": {
          "owner": "address The address which owns the funds.",
          "spender": "address The address which will spend the funds."
        },
        "return": "A uint256 specifying the amount of tokens still available for the spender."
      },
      "approve(address,uint256)": {
        "details": "Approve the passed address to spend the specified amount of tokens on behalf of msg.sender. Beware that changing an allowance with this method brings the risk that someone may use both the old and the new allowance by unfortunate transaction ordering. One possible solution to mitigate this race condition is to first reduce the spender's allowance to 0 and set the desired value afterwards: https://github.com/ethereum/EIPs/issues/20#issuecomment-263524729",
        "params": {
          "spender": "The address which will spend the funds.",
          "value": "The amount of tokens to be spent."
        }
      },
      "availableFunds(address)": {
        "details": "Returns the amount of funds a given address is able to withdraw currently.",
        "params": {
          "_forAddress": "Address of ClaimsToken holder"
        },
        "return": "A uint256 representing the available funds for a given account"
      },
      "balanceOf(address)": {
        "details": "Gets the balance of the specified address.",
        "params": {
          "owner": "The address to query the balance of."
        },
        "return": "An uint256 representing the amount owned by the passed address."
      },
      "decimals()": {
        "details": "Returns the number of decimals used to get its user representation. For example, if `decimals` equals `2`, a balance of `505` tokens should be displayed to a user as `5,05` (`505 / 10 ** 2`).     * Tokens usually opt for a value of 18, imitating the relationship between Ether and Wei.     * NOTE: This information is only used for _display_ purposes: it in no way affects any of the arithmetic of the contract, including {IERC20-balanceOf} and {IERC20-transfer}."
      },
      "decreaseAllowance(address,uint256)": {
        "details": "Decrease the amount of tokens that an owner allowed to a spender. approve should be called when allowed_[_spender] == 0. To decrement allowed value is better to use this function to avoid 2 calls (and wait until the first transaction is mined) From MonolithDAO Token.sol Emits an Approval event.",
        "params": {
          "spender": "The address which will spend the funds.",
          "subtractedValue": "The amount of tokens to decrease the allowance by."
        }
      },
      "increaseAllowance(address,uint256)": {
        "details": "Increase the amount of tokens that an owner allowed to a spender. approve should be called when allowed_[_spender] == 0. To increment allowed value is better to use this function to avoid 2 calls (and wait until the first transaction is mined) From MonolithDAO Token.sol Emits an Approval event.",
        "params": {
          "addedValue": "The amount of tokens to increase the allowance by.",
          "spender": "The address which will spend the funds."
        }
      },
      "name()": {
        "details": "Returns the name of the token."
      },
      "symbol()": {
        "details": "Returns the symbol of the token, usually a shorter version of the name."
      },
      "tokenFallback(address,uint256,bytes)": {
        "details": "For ERC223. Calls _registerFunds(), whereby total received funds (cumulative) gets updated.",
        "params": {
          "_sender": "Sender of tokens",
          "_value": "Amount of tokens"
        }
      },
      "totalReceivedFunds()": {
        "details": "Get cumulative funds received by ClaimsToken.",
        "return": "A uint256 representing the total funds received by ClaimsToken"
      },
      "totalSupply()": {
        "details": "Total number of tokens in existence"
      },
      "transfer(address,uint256)": {
        "details": "Transfer token to a specified address. Claims funds for both parties, whereby the amount of tokens withdrawn is inherited by the new token owner.",
        "params": {
          "_to": "The address to transfer to",
          "_value": "The amount to be transferred"
        }
      },
      "transferFrom(address,address,uint256)": {
        "details": "Transfer tokens from one address to another. Claims funds for both parties, whereby the amount of tokens withdrawn is inherited by the new token owner.",
        "params": {
          "_from": "address The address which you want to send tokens from",
          "_to": "address The address which you want to transfer to",
          "_value": "uint256 the amount of tokens to be transferred"
        }
      },
      "withdrawFunds()": {
        "details": "Withdraws available funds for user."
      }
    }
  },
  "userdoc": {
    "methods": {}
  }
}