{
  "contractName": "MolochSummoner",
  "abi": [
    {
      "constant": true,
      "inputs": [
        {
          "name": "",
          "type": "uint256"
        }
      ],
      "name": "Molochs",
      "outputs": [
        {
          "name": "",
          "type": "address"
        }
      ],
      "payable": false,
      "stateMutability": "view",
      "type": "function"
    },
    {
      "anonymous": false,
      "inputs": [
        {
          "indexed": true,
          "name": "M",
          "type": "address"
        },
        {
          "indexed": true,
          "name": "_summoner",
          "type": "address"
        }
      ],
      "name": "Summoned",
      "type": "event"
    },
    {
      "constant": false,
      "inputs": [
        {
          "name": "_summoner",
          "type": "address"
        },
        {
          "name": "_approvedTokens",
          "type": "address[]"
        },
        {
          "name": "_periodDuration",
          "type": "uint256"
        },
        {
          "name": "_votingPeriodLength",
          "type": "uint256"
        },
        {
          "name": "_gracePeriodLength",
          "type": "uint256"
        },
        {
          "name": "_proposalDeposit",
          "type": "uint256"
        },
        {
          "name": "_dilutionBound",
          "type": "uint256"
        },
        {
          "name": "_processingReward",
          "type": "uint256"
        }
      ],
      "name": "summonMoloch",
      "outputs": [],
      "payable": false,
      "stateMutability": "nonpayable",
      "type": "function"
    },
    {
      "constant": true,
      "inputs": [],
      "name": "getMolochCount",
      "outputs": [
        {
          "name": "MolochCount",
          "type": "uint256"
        }
      ],
      "payable": false,
      "stateMutability": "view",
      "type": "function"
    }
  ],
  "bytecode": "0x608060405234801561001057600080fd5b50615b19806100206000396000f3fe608060405234801561001057600080fd5b50600436106100415760003560e01c80630fe204bd1461004657806356c40ab51461006057806381fc595914610140575b600080fd5b61004e610186565b60408051918252519081900360200190f35b61013e600480360361010081101561007757600080fd5b73ffffffffffffffffffffffffffffffffffffffff82351691908101906040810160208201356401000000008111156100af57600080fd5b8201836020820111156100c157600080fd5b803590602001918460208302840111640100000000831117156100e357600080fd5b9190808060200260200160405190810160405280939291908181526020018383602002808284376000920191909152509295505082359350505060208101359060408101359060608101359060808101359060a0013561018c565b005b61015d6004803603602081101561015657600080fd5b503561031a565b6040805173ffffffffffffffffffffffffffffffffffffffff9092168252519081900360200190f35b60015490565b87878787878787876040516101a09061034f565b808973ffffffffffffffffffffffffffffffffffffffff1673ffffffffffffffffffffffffffffffffffffffff16815260200180602001888152602001878152602001868152602001858152602001848152602001838152602001828103825289818151815260200191508051906020019060200280838360005b8381101561023357818101518382015260200161021b565b505050509050019950505050505050505050604051809103906000f080158015610261573d6000803e3d6000fd5b506000805473ffffffffffffffffffffffffffffffffffffffff9283167fffffffffffffffffffffffff0000000000000000000000000000000000000000918216178083556001805480820182559084527fb10e2d527612073b26eecdfd717e6a320cf44b4afac2b0732d9fcbe2b7fa0cf601805490921690841617905580546040518b84169391909116917f5d117058594e38d35f98a79b5e9cbcd9fa0597fad786e2826bc4f290a0f5d4a791a35050505050505050565b600180548290811061032857fe5b60009182526020909120015473ffffffffffffffffffffffffffffffffffffffff16905081565b615790806200035e8339019056fe608060405260006009556000600a556000600b553480156200002057600080fd5b50604051620057903803806200579083398101806040526101008110156200004757600080fd5b8151602083018051919392830192916401000000008111156200006957600080fd5b820160208101848111156200007d57600080fd5b81518560208202830111640100000000821117156200009b57600080fd5b5050602082015160408301516060840151608085015160a086015160c0909601516000805460ff1916600117905594975092955090939092600160a060020a03881615156200014b57604080517f08c379a000000000000000000000000000000000000000000000000000000000815260206004820152601460248201527f73756d6d6f6e65722063616e6e6f742062652030000000000000000000000000604482015290519081900360640190fd5b60008611620001bb57604080517f08c379a000000000000000000000000000000000000000000000000000000000815260206004820152601b60248201527f5f706572696f644475726174696f6e2063616e6e6f7420626520300000000000604482015290519081900360640190fd5b600085116200022b57604080517f08c379a000000000000000000000000000000000000000000000000000000000815260206004820152601f60248201527f5f766f74696e67506572696f644c656e6774682063616e6e6f74206265203000604482015290519081900360640190fd5b670de0b6b3a76400008511156200028e576040517f08c379a0000000000000000000000000000000000000000000000000000000008152600401808060200182810382526021815260200180620057366021913960400191505060405180910390fd5b670de0b6b3a76400008411156200030657604080517f08c379a000000000000000000000000000000000000000000000000000000000815260206004820181905260248201527f5f6772616365506572696f644c656e6774682065786365656473206c696d6974604482015290519081900360640190fd5b600082116200037657604080517f08c379a000000000000000000000000000000000000000000000000000000000815260206004820152601a60248201527f5f64696c7574696f6e426f756e642063616e6e6f742062652030000000000000604482015290519081900360640190fd5b670de0b6b3a7640000821115620003ee57604080517f08c379a000000000000000000000000000000000000000000000000000000000815260206004820152601c60248201527f5f64696c7574696f6e426f756e642065786365656473206c696d697400000000604482015290519081900360640190fd5b86516000106200045f57604080517f08c379a000000000000000000000000000000000000000000000000000000000815260206004820181905260248201527f6e656564206174206c65617374206f6e6520617070726f76656420746f6b656e604482015290519081900360640190fd5b80831015620004ba576040517f08c379a0000000000000000000000000000000000000000000000000000000008152600401808060200182810382526039815260200180620057576039913960400191505060405180910390fd5b866000815181101515620004ca57fe5b90602001906020020151600860006101000a815481600160a060020a030219169083600160a060020a0316021790555087600160a060020a03167fc9943dac607a408ce079996205c3b771a7e464a5cf3859bc3315813f965e92408842898989898989604051808060200189815260200188815260200187815260200186815260200185815260200184815260200183815260200182810382528a818151815260200191508051906020019060200280838360005b83811015620005995781810151838201526020016200057f565b50505050905001995050505050505050505060405180910390a260005b875181101562000798578751600090899083908110620005d257fe5b60209081029091010151600160a060020a031614156200065357604080517f08c379a000000000000000000000000000000000000000000000000000000000815260206004820152601a60248201527f5f617070726f766564546f6b656e2063616e6e6f742062652030000000000000604482015290519081900360640190fd5b600d600089838151811015156200066657fe5b6020908102909101810151600160a060020a031682528101919091526040016000205460ff1615620006f957604080517f08c379a000000000000000000000000000000000000000000000000000000000815260206004820152601860248201527f6475706c696361746520617070726f76656420746f6b656e0000000000000000604482015290519081900360640190fd5b6001600d60008a848151811015156200070e57fe5b602090810291909101810151600160a060020a03168252810191909152604001600020805460ff19169115159190911790558751600e908990839081106200075257fe5b6020908102919091018101518254600180820185556000948552929093209092018054600160a060020a031916600160a060020a039093169290921790915501620005b6565b508560018190555084600281905550836003819055508260048190555081600581905550806006819055504260078190555060c06040519081016040528089600160a060020a031681526020016001815260200160008152602001600115158152602001600081526020016000815250601160008a600160a060020a0316600160a060020a0316815260200190815260200160002060008201518160000160006101000a815481600160a060020a030219169083600160a060020a03160217905550602082015181600101556040820151816002015560608201518160030160006101000a81548160ff0219169083151502179055506080820151816004015560a0820151816005015590505087601260008a600160a060020a0316600160a060020a0316815260200190815260200160002060006101000a815481600160a060020a030219169083600160a060020a031602179055506001600a819055505050505050505050614e27806200090f6000396000f3fe608060405234801561001057600080fd5b50600436106102e95760003560e01c8063753d756311610191578063b470aade116100e3578063e178034511610097578063e681c4aa11610071578063e681c4aa14610b65578063f5d54c7714610b6d578063feb7ea1d14610b75576102e9565b8063e178034514610b05578063e1a0e3fa14610b2b578063e63bc62d14610b48576102e9565b8063da35c664116100c8578063da35c66414610aba578063dfdd369e14610ac2578063e0a8f6f514610ae8576102e9565b8063b470aade14610aaa578063c89039c514610ab2576102e9565b80639425a47611610145578063a3dc38001161011f578063a3dc380014610a30578063afe5475f14610a4d578063b2643aab14610a55576102e9565b80639425a476146109d05780639746d940146109ed57806399653fbe14610a0a576102e9565b80637d5b6c72116101765780637d5b6c72146109b85780638340bbce146109c05780638b15a605146109c8576102e9565b8063753d75631461098a578063797daf70146109b0576102e9565b80633793ab3c1161024a5780634482394b116101fe578063635e99aa116101d8578063635e99aa1461094c57806363858f2d1461095457806373f8fd4b1461095c576102e9565b80634482394b1461071557806345f2d1051461083e578063590f940b1461086c576102e9565b80633b214a741161022f5780633b214a74146106985780633fc24bba146106b5578063402c1794146106ef576102e9565b80633793ab3c146106735780633a98ef3914610690576102e9565b80630cf20cc9116102a157806315eb349e1161028657806315eb349e146105f15780631dafede0146106145780632582bf2a1461064d576102e9565b80630cf20cc91461050d578063115b2d181461053b576102e9565b8063044a0ca8116102d2578063044a0ca814610452578063086146d2146104a257806308ae4b0c146104aa576102e9565b8063013cf08b146102ee57806303e32fa114610438575b600080fd5b61030b6004803603602081101561030457600080fd5b5035610c2b565b604051808f600160a060020a0316600160a060020a031681526020018e600160a060020a0316600160a060020a031681526020018d600160a060020a0316600160a060020a031681526020018c81526020018b81526020018a815260200189600160a060020a0316600160a060020a0316815260200188815260200187600160a060020a0316600160a060020a0316815260200186815260200185815260200184815260200180602001838152602001828103825284818151815260200191508051906020019080838360005b838110156103f05781810151838201526020016103d8565b50505050905090810190601f16801561041d5780820380516001836020036101000a031916815260200191505b509f5050505050505050505050505050505060405180910390f35b610440610d8e565b60408051918252519081900360200190f35b61047e6004803603604081101561046857600080fd5b50600160a060020a038135169060200135610d94565b6040518082600281111561048e57fe5b60ff16815260200191505060405180910390f35b610440610ebe565b6104d0600480360360208110156104c057600080fd5b5035600160a060020a0316610eed565b60408051600160a060020a0390971687526020870195909552858501939093529015156060850152608084015260a0830152519081900360c00190f35b6105396004803603604081101561052357600080fd5b50600160a060020a038135169060200135610f30565b005b6104406004803603604081101561055157600080fd5b600160a060020a03823516919081019060408101602082013564010000000081111561057c57600080fd5b82018360208201111561058e57600080fd5b803590602001918460018302840111640100000000831117156105b057600080fd5b91908080601f016020809104026020016040519081016040528093929190818152602001838380828437600092019190915250929550610fb6945050505050565b6105396004803603604081101561060757600080fd5b5080359060200135611182565b6106316004803603602081101561062a57600080fd5b50356112da565b60408051600160a060020a039092168252519081900360200190f35b6105396004803603602081101561066357600080fd5b5035600160a060020a0316611302565b6105396004803603602081101561068957600080fd5b50356115c4565b610440611811565b610440600480360360208110156106ae57600080fd5b5035611817565b6106db600480360360208110156106cb57600080fd5b5035600160a060020a0316611836565b604080519115158252519081900360200190f35b6106316004803603602081101561070557600080fd5b5035600160a060020a031661184b565b6105396004803603606081101561072b57600080fd5b81019060208101813564010000000081111561074657600080fd5b82018360208201111561075857600080fd5b8035906020019184602083028401116401000000008311171561077a57600080fd5b91908080602002602001604051908101604052809392919081815260200183836020028082843760009201919091525092959493602081019350359150506401000000008111156107ca57600080fd5b8201836020820111156107dc57600080fd5b803590602001918460208302840111640100000000831117156107fe57600080fd5b9190808060200260200160405190810160405280939291908181526020018383602002808284376000920191909152509295505050503515159050611866565b6104406004803603604081101561085457600080fd5b50600160a060020a03813581169160200135166119d2565b610440600480360361010081101561088357600080fd5b600160a060020a038235811692602081013592604082013592606083013592608081013582169260a08201359260c0830135169190810190610100810160e08201356401000000008111156108d757600080fd5b8201836020820111156108e957600080fd5b8035906020019184600183028401116401000000008311171561090b57600080fd5b91908080601f0160208091040260200160405190810160405280939291908181526020018383808284376000920191909152509295506119ef945050505050565b610440611dbf565b610440611dc5565b6104406004803603604081101561097257600080fd5b50600160a060020a0381358116916020013516611dcb565b6106db600480360360208110156109a057600080fd5b5035600160a060020a0316611df6565b610440611e0b565b610440611e11565b610440611e17565b610440611e1d565b6106db600480360360208110156109e657600080fd5b5035611e23565b61053960048036036020811015610a0357600080fd5b5035611e4a565b61053960048036036040811015610a2057600080fd5b508035906020013560ff16612504565b6106db60048036036020811015610a4657600080fd5b5035612a4c565b610440612b07565b610a7260048036036020811015610a6b57600080fd5b5035612b0d565b604051808260c080838360005b83811015610a97578181015183820152602001610a7f565b5050505090500191505060405180910390f35b610440612b77565b610631612b7d565b610440612b8c565b61053960048036036020811015610ad857600080fd5b5035600160a060020a0316612b92565b61053960048036036020811015610afe57600080fd5b5035612d8e565b6106db60048036036020811015610b1b57600080fd5b5035600160a060020a0316612fd0565b61053960048036036020811015610b4157600080fd5b5035612fe5565b61053960048036036020811015610b5e57600080fd5b5035613220565b61063161374b565b610631613751565b61044060048036036040811015610b8b57600080fd5b600160a060020a038235169190810190604081016020820135640100000000811115610bb657600080fd5b820183602082011115610bc857600080fd5b80359060200191846001830284011164010000000083111715610bea57600080fd5b91908080601f016020809104026020016040519081016040528093929190818152602001838380828437600092019190915250929550613757945050505050565b60136020528060005260406000206000915090508060000160009054906101000a9004600160a060020a0316908060010160009054906101000a9004600160a060020a0316908060020160009054906101000a9004600160a060020a0316908060030154908060040154908060050154908060060160009054906101000a9004600160a060020a0316908060070154908060080160009054906101000a9004600160a060020a03169080600901549080600a01549080600b01549080600d018054600181600116156101000203166002900480601f016020809104026020016040519081016040528092919081815260200182805460018160011615610100020316600290048015610d7e5780601f10610d5357610100808354040283529160200191610d7e565b820191906000526020600020905b815481529060010190602001808311610d6157829003601f168201915b50505050509080600e015490508e565b60065481565b600160a060020a03821660009081526011602052604081206003015460ff161515610e0e5760408051600080516020614ce1833981519152815260206004820152601560248201527f6d656d62657220646f6573206e6f742065786973740000000000000000000000604482015290519081900360640190fd5b6014548210610e6c5760408051600080516020614ce1833981519152815260206004820152601760248201527f70726f706f73616c20646f6573206e6f74206578697374000000000000000000604482015290519081900360640190fd5b60136000601484815481101515610e7f57fe5b600091825260208083209091015483528281019390935260409182018120600160a060020a0387168252600f0190925290205460ff1690505b92915050565b6000610ee7600154610edb600754426138c590919063ffffffff16565b9063ffffffff6138da16565b90505b90565b601160205260009081526040902080546001820154600283015460038401546004850154600590950154600160a060020a03909416949293919260ff9091169186565b60005460ff161515610f915760408051600080516020614ce1833981519152815260206004820152601f60248201527f5265656e7472616e637947756172643a207265656e7472616e742063616c6c00604482015290519081900360640190fd5b6000805460ff19169055610fa582826138fe565b50506000805460ff19166001179055565b6000805460ff1615156110185760408051600080516020614ce1833981519152815260206004820152601f60248201527f5265656e7472616e637947756172643a207265656e7472616e742063616c6c00604482015290519081900360640190fd5b6000805460ff1916905561102a61492e565b50600160a060020a038084166000908152601160209081526040808320815160c081018352815490951685526001810154928501839052600281015491850191909152600381015460ff1615156060850152600481015460808501526005015460a0840152118061109f575060008160400151115b15156110e457604051600080516020614ce1833981519152815260040180806020018281038252602f815260200180614c5b602f913960400191505060405180910390fd5b600160a060020a0384166000908152601160205260409020600501541561114457604051600080516020614ce18339815191528152600401808060200182810382526021815260200180614c176021913960400191505060405180910390fd5b61114c614970565b600160a082015261116585600080808080808b89613abf565b50506009546000805460ff19166001179055600019019392505050565b60005460ff1615156111e35760408051600080516020614ce1833981519152815260206004820152601f60248201527f5265656e7472616e637947756172643a207265656e7472616e742063616c6c00604482015290519081900360640190fd5b6000805460ff19168155338152601160205260408120600101541180611219575033600090815260116020526040812060020154115b15156112745760408051600080516020614ce1833981519152815260206004820152600c60248201527f6e6f742061206d656d6265720000000000000000000000000000000000000000604482015290519081900360640190fd5b610fa5338383600e8054806020026020016040519081016040528092919081815260200182805480156112d057602002820191906000526020600020905b8154600160a060020a031681526001909101906020018083116112b2575b5050505050613e7a565b600e8054829081106112e857fe5b600091825260209091200154600160a060020a0316905081565b60005460ff1615156113635760408051600080516020614ce1833981519152815260206004820152601f60248201527f5265656e7472616e637947756172643a207265656e7472616e742063616c6c00604482015290519081900360640190fd5b6000805460ff1916815533815260116020526040812060010154116113d75760408051600080516020614ce1833981519152815260206004820152601160248201527f6e6f742061207368617265686f6c646572000000000000000000000000000000604482015290519081900360640190fd5b600160a060020a038116151561143c5760408051600080516020614ce1833981519152815260206004820152601a60248201527f6e657744656c65676174654b65792063616e6e6f742062652030000000000000604482015290519081900360640190fd5b600160a060020a038116331461152157600160a060020a03811660009081526011602052604090206003015460ff16156114af57604051600080516020614ce18339815191528152600401808060200182810382526021815260200180614d246021913960400191505060405180910390fd5b600160a060020a03808216600090815260126020908152604080832054909316825260119052206003015460ff161561152157604051600080516020614ce18339815191528152600401808060200182810382526027815260200180614b7e6027913960400191505060405180910390fd5b3360008181526011602090815260408083208054600160a060020a03908116855260128452828520805473ffffffffffffffffffffffffffffffffffffffff1990811690915590871680865294839020805482168717905581541684178155815193845290519093927fde7b64a369e10562cc2e71f0f1f944eaf144b75fead6ecb51fac9c4dd693488592908290030190a250506000805460ff19166001179055565b60005460ff1615156116255760408051600080516020614ce1833981519152815260206004820152601f60248201527f5265656e7472616e637947756172643a207265656e7472616e742063616c6c00604482015290519081900360640190fd5b6000805460ff19169055611638816141c9565b600060148281548110151561164957fe5b60009182526020808320919091015480835260139091526040909120600c81015491925090640100000000900460ff1615156116d45760408051600080516020614ce1833981519152815260206004820152601c60248201527f6d75737420626520612077686974656c6973742070726f706f73616c00000000604482015290519081900360640190fd5b600c8101805461ff00191661010017905560006116f08461455e565b9050801561179057600c8201805462ff0000191662010000179055600682018054600160a060020a039081166000908152600d60205260408120805460ff191660019081179091559254600e805494850181559091527fbb7b4a454dc3493923482f07822329ed19e8244eff582cc204f8554c3620c3fd90920180549290911673ffffffffffffffffffffffffffffffffffffffff199092169190911790555b6006820154600160a060020a039081166000908152600f60205260409020805460ff1916905560028301546117c5911661479f565b6040805182151581529051849186917f2094fc13d2ecb0acd6861e82bd006c7e5ab6f312ec0c6cdfe3d1a01ee54d885a9181900360200190a350506000805460ff191660011790555050565b600a5481565b601480548290811061182557fe5b600091825260209091200154905081565b60106020526000908152604090205460ff1681565b601260205260009081526040902054600160a060020a031681565b60005460ff1615156118c75760408051600080516020614ce1833981519152815260206004820152601f60248201527f5265656e7472616e637947756172643a207265656e7472616e742063616c6c00604482015290519081900360640190fd5b6000805460ff19169055815183511461191957604051600080516020614ce18339815191528152600401808060200182810382526032815260200180614c8a6032913960400191505060405180910390fd5b60005b83518110156119bf576000838281518110151561193557fe5b906020019060200201519050821561199557336000908152600c60205260408120865190919087908590811061196757fe5b90602001906020020151600160a060020a0316600160a060020a031681526020019081526020016000205490505b6119b685838151811015156119a657fe5b90602001906020020151826138fe565b5060010161191c565b50506000805460ff191660011790555050565b600c60209081526000928352604080842090915290825290205481565b6000805460ff161515611a515760408051600080516020614ce1833981519152815260206004820152601f60248201527f5265656e7472616e637947756172643a207265656e7472616e742063616c6c00604482015290519081900360640190fd5b6000805460ff19169055670de0b6b3a7640000611a74898963ffffffff6147f416565b1115611acf5760408051600080516020614ce1833981519152815260206004820152601960248201527f746f6f206d616e79207368617265732072657175657374656400000000000000604482015290519081900360640190fd5b600160a060020a0385166000908152600d602052604090205460ff161515611b465760408051600080516020614ce1833981519152815260206004820152601f60248201527f74726962757465546f6b656e206973206e6f742077686974656c697374656400604482015290519081900360640190fd5b600160a060020a0383166000908152600d602052604090205460ff161515611bbd5760408051600080516020614ce1833981519152815260206004820152601a60248201527f7061796d656e74206973206e6f742077686974656c6973746564000000000000604482015290519081900360640190fd5b600160a060020a0389161515611c225760408051600080516020614ce1833981519152815260206004820152601560248201527f6170706c6963616e742063616e6e6f7420626520300000000000000000000000604482015290519081900360640190fd5b600160a060020a03891660009081526011602052604090206005015415611c8257604051600080516020614ce18339815191528152600401808060200182810382526025815260200180614cbc6025913960400191505060405180910390fd5b604080517f23b872dd000000000000000000000000000000000000000000000000000000008152336004820152306024820152604481018890529051600160a060020a038716916323b872dd9160648083019260209291908290030181600087803b158015611cf057600080fd5b505af1158015611d04573d6000803e3d6000fd5b505050506040513d6020811015611d1a57600080fd5b50511515611d775760408051600080516020614ce1833981519152815260206004820152601d60248201527f7472696275746520746f6b656e207472616e73666572206661696c6564000000604482015290519081900360640190fd5b611d8461beef868861480d565b611d8c614970565b611d9d8a8a8a8a8a8a8a8a89613abf565b5050600954600019016000805460ff1916600117905598975050505050505050565b600b5481565b60035481565b600160a060020a039182166000908152600c6020908152604080832093909416825291909152205490565b600d6020526000908152604090205460ff1681565b60145490565b60075481565b60025481565b60045481565b6000611e3a600254836147f490919063ffffffff16565b611e42610ebe565b101592915050565b60005460ff161515611eab5760408051600080516020614ce1833981519152815260206004820152601f60248201527f5265656e7472616e637947756172643a207265656e7472616e742063616c6c00604482015290519081900360640190fd5b6000805460ff1916815533815260126020908152604080832054600160a060020a03168352601190915281206001015411611f355760408051600080516020614ce1833981519152815260206004820152600e60248201527f6e6f7420612064656c6567617465000000000000000000000000000000000000604482015290519081900360640190fd5b60085460048054604080517f23b872dd0000000000000000000000000000000000000000000000000000000081523393810193909352306024840152604483019190915251600160a060020a03909216916323b872dd916064808201926020929091908290030181600087803b158015611fae57600080fd5b505af1158015611fc2573d6000803e3d6000fd5b505050506040513d6020811015611fd857600080fd5b5051151561201f57604051600080516020614ce18339815191528152600401808060200182810382526026815260200180614d456026913960400191505060405180910390fd5b60085460045461203e9161beef91600160a060020a039091169061480d565b60008181526013602052604090206001810154600160a060020a031615156120b55760408051600080516020614ce1833981519152815260206004820181905260248201527f70726f706f73616c206d7573742068617665206265656e2070726f706f736564604482015290519081900360640190fd5b600c81015460ff161561210157604051600080516020614ce18339815191528152600401808060200182810382526023815260200180614d016023913960400191505060405180910390fd5b600c8101546301000000900460ff161561216a5760408051600080516020614ce1833981519152815260206004820152601b60248201527f70726f706f73616c20686173206265656e2063616e63656c6c65640000000000604482015290519081900360640190fd5b8054600160a060020a0316600090815260116020526040902060050154156121cb57604051600080516020614ce18339815191528152600401808060200182810382526025815260200180614cbc6025913960400191505060405180910390fd5b600c810154640100000000900460ff16156122ea576006810154600160a060020a03166000908152600d602052604090205460ff161561224457604051600080516020614ce18339815191528152600401808060200182810382526029815260200180614db06029913960400191505060405180910390fd5b6006810154600160a060020a03166000908152600f602052604090205460ff16156122be5760408051600080516020614ce1833981519152815260206004820152601d60248201527f616c72656164792070726f706f73656420746f2077686974656c697374000000604482015290519081900360640190fd5b6006810154600160a060020a03166000908152600f60205260409020805460ff1916600117905561239c565b600c81015465010000000000900460ff161561239c578054600160a060020a031660009081526010602052604090205460ff16156123775760408051600080516020614ce1833981519152815260206004820152601860248201527f616c72656164792070726f706f73656420746f206b69636b0000000000000000604482015290519081900360640190fd5b8054600160a060020a03166000908152601060205260409020805460ff191660011790555b600061241160016124056123ae610ebe565b601454156123fd57601480546013916000916123d190600163ffffffff6138c516565b815481106123db57fe5b9060005260206000200154815260200190815260200160002060090154612400565b60005b61483f565b9063ffffffff6147f416565b600983018190553360008181526012602052604081205460028601805473ffffffffffffffffffffffffffffffffffffffff1916600160a060020a039092169182179055600c8601805460ff19166001908117909155601480548083018255938190527fce6d7b5282bd9a3661ae061feed1dbda4e52ab073b1f9285be6e155d9c38d4ec9093018890559154939450928392917f2a383a979381335e3eb401ac01dd8083e024ff0256bf5338456ffc0063390bbd9188916124d291906138c5565b604080519283526020830191909152818101879052519081900360600190a350506000805460ff191660011790555050565b60005460ff1615156125655760408051600080516020614ce1833981519152815260206004820152601f60248201527f5265656e7472616e637947756172643a207265656e7472616e742063616c6c00604482015290519081900360640190fd5b6000805460ff1916815533815260126020908152604080832054600160a060020a031683526011909152812060010154116125ef5760408051600080516020614ce1833981519152815260206004820152600e60248201527f6e6f7420612064656c6567617465000000000000000000000000000000000000604482015290519081900360640190fd5b33600090815260126020908152604080832054600160a060020a0316808452601190925290912060145484106126745760408051600080516020614ce1833981519152815260206004820152601760248201527f70726f706f73616c20646f6573206e6f74206578697374000000000000000000604482015290519081900360640190fd5b60006013600060148781548110151561268957fe5b90600052602060002001548152602001908152602001600020905060038460ff161015156127065760408051600080516020614ce1833981519152815260206004820152601360248201527f6d757374206265206c657373207468616e203300000000000000000000000000604482015290519081900360640190fd5b60008460ff16600281111561271757fe5b90508160090154612726610ebe565b10156127815760408051600080516020614ce1833981519152815260206004820152601d60248201527f766f74696e6720706572696f6420686173206e6f742073746172746564000000604482015290519081900360640190fd5b61278e8260090154611e23565b156127d257604051600080516020614ce18339815191528152600401808060200182810382526022815260200180614d6b6022913960400191505060405180910390fd5b600160a060020a0384166000908152600f8301602052604081205460ff1660028111156127fb57fe5b146128555760408051600080516020614ce1833981519152815260206004820152601860248201527f6d656d6265722068617320616c726561647920766f7465640000000000000000604482015290519081900360640190fd5b600181600281111561286357fe5b148061287a5750600281600281111561287857fe5b145b15156128d55760408051600080516020614ce1833981519152815260206004820152601d60248201527f766f7465206d7573742062652065697468657220596573206f72204e6f000000604482015290519081900360640190fd5b600160a060020a0384166000908152600f830160205260409020805482919060ff1916600183600281111561290657fe5b0217905550600181600281111561291957fe5b1415612991576001830154600a8301546129389163ffffffff6147f416565b600a830155600483015486111561295157600483018690555b600e820154600b54600a5461296b9163ffffffff6147f416565b111561298c57600b54600a546129869163ffffffff6147f416565b600e8301555b6129c4565b600281600281111561299f57fe5b14156129c4576001830154600b8301546129be9163ffffffff6147f416565b600b8301555b83600160a060020a031633600160a060020a0316877f804f03797630bf8b8a46b9371608abbf7d78a20df720e477bab641957ca68a2060148a815481101515612a0957fe5b906000526020600020015489604051808381526020018260ff1660ff1681526020019250505060405180910390a450506000805460ff1916600117905550505050565b6014546000908210612aad5760408051600080516020614ce1833981519152815260206004820152601760248201527f70726f706f73616c20646f6573206e6f74206578697374000000000000000000604482015290519081900360640190fd5b60136000601484815481101515612ac057fe5b90600052602060002001548152602001908152602001600020600c016001600681101515612aea57fe5b602081049091015460ff601f9092166101000a9004169050919050565b60055481565b612b15614970565b600082815260136020526040808220815160c081019283905292600c909101916006918390855b825461010083900a900460ff161515815260206001928301818104948501949093039092029101808411612b3c575094979650505050505050565b60015481565b600854600160a060020a031681565b60095481565b60005460ff161515612bf35760408051600080516020614ce1833981519152815260206004820152601f60248201527f5265656e7472616e637947756172643a207265656e7472616e742063616c6c00604482015290519081900360640190fd5b6000805460ff19168155600160a060020a038216815260116020526040902060058101541515612c725760408051600080516020614ce1833981519152815260206004820152601660248201527f6d656d626572206d75737420626520696e206a61696c00000000000000000000604482015290519081900360640190fd5b6002810154600010612cd35760408051600080516020614ce1833981519152815260206004820152601a60248201527f6d656d626572206d757374206861766520736f6d65206c6f6f74000000000000604482015290519081900360640190fd5b612ce08160040154612a4c565b1515612d2557604051600080516020614ce1833981519152815260040180806020018281038252604d815260200180614ba5604d913960600191505060405180910390fd5b610fa58260008360020154600e8054806020026020016040519081016040528092919081815260200182805480156112d057602002820191906000526020600020908154600160a060020a031681526001909101906020018083116112b2575050505050613e7a565b60005460ff161515612def5760408051600080516020614ce1833981519152815260206004820152601f60248201527f5265656e7472616e637947756172643a207265656e7472616e742063616c6c00604482015290519081900360640190fd5b6000805460ff19168155818152601360205260409020600c81015460ff1615612e5157604051600080516020614ce18339815191528152600401808060200182810382526023815260200180614d016023913960400191505060405180910390fd5b600c8101546301000000900460ff1615612ea457604051600080516020614ce18339815191528152600401808060200182810382526023815260200180614d8d6023913960400191505060405180910390fd5b6001810154600160a060020a03163314612f0d5760408051600080516020614ce1833981519152815260206004820152601e60248201527f736f6c656c79207468652070726f706f7365722063616e2063616e63656c0000604482015290519081900360640190fd5b600c810180547fffffffffffffffffffffffffffffffffffffffffffffffffffffffff00ffffff16630100000017905533600090815260126020526040902054600182015460068301546005840154600160a060020a0393841693612f7c9361beef9390821692911690614856565b60408051600160a060020a0383168152336020820152815185927f8256f59a92aec5affe1b53d0117f2ae70e02f57a17f6b43b256008b2228a0f96928290030190a250506000805460ff1916600117905550565b600f6020526000908152604090205460ff1681565b60005460ff1615156130465760408051600080516020614ce1833981519152815260206004820152601f60248201527f5265656e7472616e637947756172643a207265656e7472616e742063616c6c00604482015290519081900360640190fd5b6000805460ff19169055613059816141c9565b600060148281548110151561306a57fe5b60009182526020808320919091015480835260139091526040909120600c8101549192509065010000000000900460ff1615156130f65760408051600080516020614ce1833981519152815260206004820152601d60248201527f6d7573742062652061206775696c64206b69636b2070726f706f73616c000000604482015290519081900360640190fd5b600c8101805461ff00191661010017905560006131128461455e565b905080156131a257600c8201805462ff00001916620100001790558154600160a060020a031660009081526011602052604090206005810185905560018101546002820154613160916147f4565b60028201556001810154600a5461317c9163ffffffff6138c516565b600a556001810154600b546131969163ffffffff6147f416565b600b5560006001909101555b8154600160a060020a039081166000908152601060205260409020805460ff1916905560028301546131d4911661479f565b6040805182151581529051849186917f0e347d00d3e9e6cdff9e6c09092c9ff1bd448f9b3dfb7091b30939ec5e7a3c739181900360200190a350506000805460ff191660011790555050565b60005460ff1615156132815760408051600080516020614ce1833981519152815260206004820152601f60248201527f5265656e7472616e637947756172643a207265656e7472616e742063616c6c00604482015290519081900360640190fd5b6000805460ff19169055613294816141c9565b60006014828154811015156132a557fe5b60009182526020808320919091015480835260139091526040909120600c81015491925090640100000000900460ff161580156132f05750600c81015465010000000000900460ff16155b151561334b5760408051600080516020614ce1833981519152815260206004820152601b60248201527f6d7573742062652061207374616e646172642070726f706f73616c0000000000604482015290519081900360640190fd5b600c8101805461ff00191661010017905560006133678461455e565b9050670de0b6b3a764000061339983600401546124058560030154612405600b54600a546147f490919063ffffffff16565b11156133a3575060005b6008820154600160a060020a0316158015906133fd57506008820154600160a060020a031660009081527f45117a726ea4f344045dc210793664a28d2d320b7e03f6bffdae553d24c3586c60205260409020546007830154115b15613406575060005b80156136c057600c8201805462ff00001916620100001790558154600160a060020a031660009081526011602052604090206003015460ff16156134dd5760038201548254600160a060020a03166000908152601160205260409020600101546134759163ffffffff6147f416565b8254600160a060020a039081166000908152601160205260408082206001019390935560048501548554909216815291909120600201546134bb9163ffffffff6147f416565b8254600160a060020a031660009081526011602052604090206002015561363a565b8154600160a060020a03908116600090815260126020908152604080832054909316825260119052206003015460ff161561356e578154600160a060020a03908116600090815260126020908152604080832054909316808352838320805473ffffffffffffffffffffffffffffffffffffffff199081168317909155601190925292909120805490911690911790555b6040805160c0810182528354600160a060020a0390811680835260038087015460208086019182526004808a0154878901908152600160608901818152600060808b0181815260a08c01828152998252601187528c82209b518c54908c1673ffffffffffffffffffffffffffffffffffffffff19918216178d559751938c0193909355925160028b015551958901805496151560ff1990971696909617909555935190870155925160059095019490945586549092168083526012909152929020805490911690911790555b6003820154600a546136519163ffffffff6147f416565b600a556004820154600b5461366b9163ffffffff6147f416565b600b55600682015460058301546136939161beef9161dead91600160a060020a031690614856565b8154600883015460078401546136bb9261dead92600160a060020a0391821692911690614856565b6136e8565b8154600683015460058401546136e89261beef92600160a060020a0391821692911690614856565b60028201546136ff90600160a060020a031661479f565b6040805182151581529051849186917f86f74240ecee9e4230d26ff92e17fee978460d9c0f78f5c88b2864c9e7a494279181900360200190a350506000805460ff191660011790555050565b61beef81565b61dead81565b6000805460ff1615156137b95760408051600080516020614ce1833981519152815260206004820152601f60248201527f5265656e7472616e637947756172643a207265656e7472616e742063616c6c00604482015290519081900360640190fd5b6000805460ff19169055600160a060020a03831615156138285760408051600080516020614ce1833981519152815260206004820152601a60248201527f6d7573742070726f7669646520746f6b656e2061646472657373000000000000604482015290519081900360640190fd5b600160a060020a0383166000908152600d602052604090205460ff161561388857604051600080516020614ce18339815191528152600401808060200182810382526029815260200180614db06029913960400191505060405180910390fd5b613890614970565b600160808201526138a960008080808881808a89613abf565b5050600954600019016000805460ff1916600117905592915050565b6000828211156138d457600080fd5b50900390565b60008082116138e857600080fd5b600082848115156138f557fe5b04949350505050565b336000908152600c60209081526040808320600160a060020a038616845290915290205481111561397e5760408051600080516020614ce1833981519152815260206004820152601460248201527f696e73756666696369656e742062616c616e6365000000000000000000000000604482015290519081900360640190fd5b613989338383614872565b604080517fa9059cbb000000000000000000000000000000000000000000000000000000008152336004820152602481018390529051600160a060020a0384169163a9059cbb9160448083019260209291908290030181600087803b1580156139f157600080fd5b505af1158015613a05573d6000803e3d6000fd5b505050506040513d6020811015613a1b57600080fd5b50511515613a785760408051600080516020614ce1833981519152815260206004820152600f60248201527f7472616e73666572206661696c65640000000000000000000000000000000000604482015290519081900360640190fd5b60408051600160a060020a038416815260208101839052815133927f9b1bfa7fa9ee420a16e124f794c35ac9f90472acc99140eb2f6447c714cad8eb928290030190a25050565b613ac761498f565b6101e0604051908101604052808b600160a060020a0316815260200133600160a060020a031681526020016000600160a060020a031681526020018a815260200189815260200188815260200187600160a060020a0316815260200186815260200185600160a060020a03168152602001600081526020016000815260200160008152602001838152602001848152602001600081525090508060136000600954815260200190815260200160002060008201518160000160006101000a815481600160a060020a030219169083600160a060020a0316021790555060208201518160010160006101000a815481600160a060020a030219169083600160a060020a0316021790555060408201518160020160006101000a815481600160a060020a030219169083600160a060020a03160217905550606082015181600301556080820151816004015560a0820151816005015560c08201518160060160006101000a815481600160a060020a030219169083600160a060020a0316021790555060e082015181600701556101008201518160080160006101000a815481600160a060020a030219169083600160a060020a03160217905550610120820151816009015561014082015181600a015561016082015181600b015561018082015181600c01906006613cb9929190614a39565b506101a08201518051613cd691600d840191602090910190614acb565b506101c082015181600e015590505060006012600033600160a060020a0316600160a060020a0316815260200190815260200160002060009054906101000a9004600160a060020a0316905080600160a060020a031633600160a060020a03168c600160a060020a03167fa763e0f5e4f4e33a3397b4ba22677c9b6fd2075ed6504596333006ff2f3e38748d8d8d8d8d8d8d8d600954604051808a815260200189815260200188815260200187600160a060020a0316600160a060020a0316815260200186815260200185600160a060020a0316600160a060020a031681526020018060200184600660200280838360005b83811015613de0578181015183820152602001613dc8565b50505050905001838152602001828103825285818151815260200191508051906020019080838360005b83811015613e22578181015183820152602001613e0a565b50505050905090810190601f168015613e4f5780820380516001836020036101000a031916815260200191505b509a505050505050505050505060405180910390a45050600980546001019055505050505050505050565b6000613e93600b54600a546147f490919063ffffffff16565b600160a060020a0386166000908152601160205260409020600181015491925090851115613f105760408051600080516020614ce1833981519152815260206004820152601360248201527f696e73756666696369656e742073686172657300000000000000000000000000604482015290519081900360640190fd5b6002810154841115613f715760408051600080516020614ce1833981519152815260206004820152601160248201527f696e73756666696369656e74206c6f6f74000000000000000000000000000000604482015290519081900360640190fd5b613f7e8160040154612a4c565b1515613fc357604051600080516020614ce1833981519152815260040180806020018281038252604d815260200180614ba5604d913960600191505060405180910390fd5b6000613fd5868663ffffffff6147f416565b6001830154909150613fed908763ffffffff6138c516565b60018301556002820154614007908663ffffffff6138c516565b6002830155600a5461401f908763ffffffff6138c516565b600a55600b54614035908663ffffffff6138c516565b600b5560005b84518110156141855761dead6000908152600c60205285516140b9907f45117a726ea4f344045dc210793664a28d2d320b7e03f6bffdae553d24c3586c90839089908690811061408757fe5b90602001906020020151600160a060020a0316600160a060020a031681526020019081526020016000205484876148a5565b9050600081111561417c5761dead6000908152600c602052865182917f45117a726ea4f344045dc210793664a28d2d320b7e03f6bffdae553d24c3586c9189908690811061410357fe5b6020908102909101810151600160a060020a0390811683528282019390935260409182016000908120805495909503909455918c168352600c9091528120875183929089908690811061415257fe5b6020908102909101810151600160a060020a03168252810191909152604001600020805490910190555b5060010161403b565b506040805187815260208101879052815133927fcad1a1c68982832d9abc314de8a1e5d5e8c81b0588961e360766736d10c3be1a928290030190a250505050505050565b60145481106142275760408051600080516020614ce1833981519152815260206004820152601760248201527f70726f706f73616c20646f6573206e6f74206578697374000000000000000000604482015290519081900360640190fd5b61422f61498f565b6013600060148481548110151561424257fe5b6000918252602080832091909101548352828101939093526040918201812082516101e0810184528154600160a060020a039081168252600183015481169582019590955260028201548516818501526003820154606082015260048201546080820152600582015460a0820152600680830154861660c080840191909152600784015460e084015260088401549096166101008301526009830154610120830152600a830154610140830152600b83015461016083015284519586019485905290949193610180860193600c86019291908390855b825461010083900a900460ff16151581526020600192830181810494850194909303909202910180841161431857505050928452505050600d8201805460408051602060026001851615610100026000190190941693909304601f81018490048402820184019092528181529382019392918301828280156143db5780601f106143b0576101008083540402835291602001916143db565b820191906000526020600020905b8154815290600101906020018083116143be57829003601f168201915b50505050508152602001600e8201548152505090506144106003546124056002548461012001516147f490919063ffffffff16565b614418610ebe565b101561445d57604051600080516020614ce18339815191528152600401808060200182810382526025815260200180614bf26025913960400191505060405180910390fd5b61018081015160200151156144ab57604051600080516020614ce18339815191528152600401808060200182810382526023815260200180614dd96023913960400191505060405180910390fd5b81158061451557506013600060146144ca85600163ffffffff6138c516565b815481106144d457fe5b90600052602060002001548152602001908152602001600020600c0160016006811015156144fe57fe5b602081049091015460ff601f9092166101000a9004165b151561455a57604051600080516020614ce18339815191528152600401808060200182810382526023815260200180614c386023913960400191505060405180910390fd5b5050565b600061456861498f565b6013600060148581548110151561457b57fe5b6000918252602080832091909101548352828101939093526040918201812082516101e0810184528154600160a060020a039081168252600183015481169582019590955260028201548516818501526003820154606082015260048201546080820152600582015460a0820152600680830154861660c080840191909152600784015460e084015260088401549096166101008301526009830154610120830152600a830154610140830152600b83015461016083015284519586019485905290949193610180860193600c86019291908390855b825461010083900a900460ff16151581526020600192830181810494850194909303909202910180841161465157505050928452505050600d8201805460408051602060026001851615610100026000190190941693909304601f81018490048402820184019092528181529382019392918301828280156147145780601f106146e957610100808354040283529160200191614714565b820191906000526020600020905b8154815290600101906020018083116146f757829003601f168201915b50505050508152602001600e820154815250509050806101600151816101400151119150806101c0015161476760055461475b600b54600a546147f490919063ffffffff16565b9063ffffffff61490316565b101561477257600091505b8051600160a060020a03166000908152601160205260409020600501541561479957600091505b50919050565b6008546006546147be9161beef913391600160a060020a031690614856565b6008546006546004546147f19261beef928592600160a060020a03909216916147ec9163ffffffff6138c516565b614856565b50565b60008282018381101561480657600080fd5b9392505050565b600160a060020a039283166000908152600c602090815260408083209490951682529290925291902080549091019055565b60008183101561484f5781614806565b5090919050565b614861848383614872565b61486c83838361480d565b50505050565b600160a060020a039283166000908152600c60209081526040808320949095168252929092529190208054919091039055565b60008115156148b357600080fd5b8315156148c257506000614806565b8383028385828115156148d157fe5b0414156148ec5782818115156148e357fe5b04915050614806565b8383868115156148f857fe5b040295945050505050565b600082151561491457506000610eb8565b82820282848281151561492357fe5b041461480657600080fd5b60c0604051908101604052806000600160a060020a03168152602001600081526020016000815260200160001515815260200160008152602001600081525090565b60c0604051908101604052806006906020820280388339509192915050565b610280604051908101604052806000600160a060020a031681526020016000600160a060020a031681526020016000600160a060020a031681526020016000815260200160008152602001600081526020016000600160a060020a03168152602001600081526020016000600160a060020a03168152602001600081526020016000815260200160008152602001614a25614970565b815260200160608152602001600081525090565b600183019183908215614abb5791602002820160005b83821115614a8c57835183826101000a81548160ff0219169083151502179055509260200192600101602081600001049283019260010302614a4f565b8015614ab95782816101000a81549060ff0219169055600101602081600001049283019260010302614a8c565b505b50614ac7929150614b45565b5090565b828054600181600116156101000203166002900490600052602060002090601f016020900481019282601f10614b0c57805160ff1916838001178555614b39565b82800160010185558215614b39579182015b82811115614b39578251825591602001919060010190614b1e565b50614ac7929150614b63565b610eea91905b80821115614ac757805460ff19168155600101614b4b565b610eea91905b80821115614ac75760008155600101614b6956fe63616e6e6f74206f7665727772697465206578697374696e672064656c6567617465206b65797363616e6e6f7420726167657175697420756e74696c206869676865737420696e6465782070726f706f73616c206d656d62657220766f74656420594553206f6e2069732070726f63657373656470726f706f73616c206973206e6f7420726561647920746f2062652070726f6365737365646d656d626572206d757374206e6f7420616c7265616479206265206a61696c656470726576696f75732070726f706f73616c206d7573742062652070726f6365737365646d656d626572206d7573742068617665206174206c65617374206f6e65207368617265206f72206f6e65206c6f6f74746f6b656e7320616e6420616d6f756e747320617272617973206d757374206265206d61746368696e67206c656e6774687370726f706f73616c206170706c6963616e74206d757374206e6f74206265206a61696c656408c379a00000000000000000000000000000000000000000000000000000000070726f706f73616c2068617320616c7265616479206265656e2073706f6e736f72656463616e6e6f74206f7665727772697465206578697374696e67206d656d6265727370726f706f73616c206465706f73697420746f6b656e207472616e73666572206661696c656470726f706f73616c20766f74696e6720706572696f6420686173206578706972656470726f706f73616c2068617320616c7265616479206265656e2063616e63656c6c656463616e6e6f7420616c726561647920686176652077686974656c69737465642074686520746f6b656e70726f706f73616c2068617320616c7265616479206265656e2070726f636573736564a165627a7a72305820e84f5b0d70eaea0b3b14ac42f4af4a23cd9219fe1b7e19c69e017fc6897454f900295f766f74696e67506572696f644c656e6774682065786365656473206c696d69745f70726f706f73616c4465706f7369742063616e6e6f7420626520736d616c6c6572207468616e205f70726f63657373696e67526577617264a165627a7a723058206f7f57cf4081f06de8fdca0499f5af46d90716cd0858aaa664f7e2e59a6eef0e0029",
  "source": "pragma solidity 0.5.3;\n\nimport \"./Moloch.sol\";\n\ncontract MolochSummoner {\n\n    Moloch private M;\n\n    address[] public Molochs;\n\n    event Summoned(address indexed M, address indexed _summoner);\n\n    function summonMoloch(\n        address _summoner,\n        address[] memory _approvedTokens,\n        uint256 _periodDuration,\n        uint256 _votingPeriodLength,\n        uint256 _gracePeriodLength,\n        uint256 _proposalDeposit,\n        uint256 _dilutionBound,\n        uint256 _processingReward) public {\n\n        M = new Moloch(\n            _summoner,\n            _approvedTokens,\n            _periodDuration,\n            _votingPeriodLength,\n            _gracePeriodLength,\n            _proposalDeposit,\n            _dilutionBound,\n            _processingReward);\n\n        Molochs.push(address(M));\n\n        emit Summoned(address(M), _summoner);\n\n    }\n\n    function getMolochCount() public view returns (uint256 MolochCount) {\n        return Molochs.length;\n    }\n}\n",
  "sourcePath": "/Users/woz/glowup/molochV2/git/moloch-subgraph/contracts/MolochSummoner.sol",
  "compiler": {
    "name": "solc",
    "version": "0.5.3+commit.10d17f24.Emscripten.clang"
  },
  "schemaVersion": "3.0.23",
  "updatedAt": "2020-02-10T12:55:42.304Z",
  "devdoc": {
    "methods": {}
  },
  "userdoc": {
    "methods": {}
  }
}